{
  "contractName": "Collector",
  "abi": [
    {
      "inputs": [
        {
          "internalType": "address",
          "name": "clEthUsd",
          "type": "address"
        }
      ],
      "stateMutability": "nonpayable",
      "type": "constructor"
    },
    {
      "inputs": [],
      "name": "noEthDeposited",
      "type": "error"
    },
    {
      "inputs": [],
      "name": "noEthSent",
      "type": "error"
    },
    {
      "inputs": [],
      "name": "noEthToWithdraw",
      "type": "error"
    },
    {
      "anonymous": false,
      "inputs": [
        {
          "indexed": true,
          "internalType": "address",
          "name": "previousOwner",
          "type": "address"
        },
        {
          "indexed": true,
          "internalType": "address",
          "name": "newOwner",
          "type": "address"
        }
      ],
      "name": "OwnershipTransferred",
      "type": "event"
    },
    {
      "inputs": [],
      "name": "ethUsdOracle",
      "outputs": [
        {
          "internalType": "contract AggregatorV3Interface",
          "name": "",
          "type": "address"
        }
      ],
      "stateMutability": "view",
      "type": "function"
    },
    {
      "inputs": [],
      "name": "oracleEthUsdPrice",
      "outputs": [
        {
          "internalType": "address",
          "name": "",
          "type": "address"
        }
      ],
      "stateMutability": "view",
      "type": "function"
    },
    {
      "inputs": [],
      "name": "owner",
      "outputs": [
        {
          "internalType": "address",
          "name": "",
          "type": "address"
        }
      ],
      "stateMutability": "view",
      "type": "function"
    },
    {
      "inputs": [],
      "name": "ownerTEthAmountToWithdraw",
      "outputs": [
        {
          "internalType": "uint256",
          "name": "",
          "type": "uint256"
        }
      ],
      "stateMutability": "view",
      "type": "function"
    },
    {
      "inputs": [],
      "name": "renounceOwnership",
      "outputs": [],
      "stateMutability": "nonpayable",
      "type": "function"
    },
    {
      "inputs": [
        {
          "internalType": "address",
          "name": "newOwner",
          "type": "address"
        }
      ],
      "name": "transferOwnership",
      "outputs": [],
      "stateMutability": "nonpayable",
      "type": "function"
    },
    {
      "inputs": [],
      "name": "usdDecimals",
      "outputs": [
        {
          "internalType": "uint256",
          "name": "",
          "type": "uint256"
        }
      ],
      "stateMutability": "view",
      "type": "function"
    },
    {
      "inputs": [
        {
          "internalType": "address",
          "name": "user",
          "type": "address"
        }
      ],
      "name": "userEthDeposits",
      "outputs": [
        {
          "internalType": "uint256",
          "name": "amount",
          "type": "uint256"
        }
      ],
      "stateMutability": "view",
      "type": "function"
    },
    {
      "stateMutability": "payable",
      "type": "receive"
    },
    {
      "inputs": [],
      "name": "getLatestPrice",
      "outputs": [
        {
          "internalType": "int256",
          "name": "",
          "type": "int256"
        }
      ],
      "stateMutability": "view",
      "type": "function"
    },
    {
      "inputs": [],
      "name": "getPriceDecimals",
      "outputs": [
        {
          "internalType": "uint256",
          "name": "",
          "type": "uint256"
        }
      ],
      "stateMutability": "view",
      "type": "function"
    },
    {
      "inputs": [
        {
          "internalType": "address",
          "name": "user",
          "type": "address"
        }
      ],
      "name": "convertEthInUSD",
      "outputs": [
        {
          "internalType": "uint256",
          "name": "",
          "type": "uint256"
        }
      ],
      "stateMutability": "view",
      "type": "function"
    },
    {
      "inputs": [
        {
          "internalType": "uint256",
          "name": "usdAmount",
          "type": "uint256"
        }
      ],
      "name": "converUSDhInETH",
      "outputs": [
        {
          "internalType": "uint256",
          "name": "",
          "type": "uint256"
        }
      ],
      "stateMutability": "view",
      "type": "function"
    },
    {
      "inputs": [],
      "name": "getNativeCoinsBalance",
      "outputs": [
        {
          "internalType": "uint256",
          "name": "",
          "type": "uint256"
        }
      ],
      "stateMutability": "view",
      "type": "function"
    },
    {
      "inputs": [],
      "name": "userEthWithdraw",
      "outputs": [],
      "stateMutability": "nonpayable",
      "type": "function"
    }
  ],
  "bytecode": "0x608060405234801562000010575f80fd5b50604051620014423803806200144283398181016040528101906200003691906200022b565b620000566200004a620000fe60201b60201c565b6200010560201b60201c565b8060025f6101000a81548173ffffffffffffffffffffffffffffffffffffffff021916908373ffffffffffffffffffffffffffffffffffffffff16021790555060025f9054906101000a900473ffffffffffffffffffffffffffffffffffffffff1660035f6101000a81548173ffffffffffffffffffffffffffffffffffffffff021916908373ffffffffffffffffffffffffffffffffffffffff160217905550506200025b565b5f33905090565b5f805f9054906101000a900473ffffffffffffffffffffffffffffffffffffffff169050815f806101000a81548173ffffffffffffffffffffffffffffffffffffffff021916908373ffffffffffffffffffffffffffffffffffffffff1602179055508173ffffffffffffffffffffffffffffffffffffffff168173ffffffffffffffffffffffffffffffffffffffff167f8be0079c531659141344cd1fd0a4f28419497f9722a3daafe3b4186f6b6457e060405160405180910390a35050565b5f80fd5b5f73ffffffffffffffffffffffffffffffffffffffff82169050919050565b5f620001f582620001ca565b9050919050565b6200020781620001e9565b811462000212575f80fd5b50565b5f815190506200022581620001fc565b92915050565b5f60208284031215620002435762000242620001c6565b5b5f620002528482850162000215565b91505092915050565b6111d980620002695f395ff3fe6080604052600436106100e0575f3560e01c80638e15f4731161007e578063d911ff9811610058578063d911ff98146102ba578063e74e171b146102e4578063f2fde38b1461030e578063f881a0eb14610336576100f0565b80638e15f4731461022a5780638e70a79914610254578063ce553dbb1461027e576100f0565b806366a4b6c0116100ba57806366a4b6c014610196578063715018a6146101c05780638a97f9c9146101d65780638da5cb5b14610200576100f0565b80631b30aafc146100f45780635ba8ba191461011e57806365b17dc11461015a576100f0565b366100f0576100ee3361034c565b005b5f80fd5b3480156100ff575f80fd5b506101086103db565b6040516101159190610a99565b60405180910390f35b348015610129575f80fd5b50610144600480360381019061013f9190610b10565b610472565b6040516101519190610a99565b60405180910390f35b348015610165575f80fd5b50610180600480360381019061017b9190610b65565b61055d565b60405161018d9190610a99565b60405180910390f35b3480156101a1575f80fd5b506101aa6105ce565b6040516101b79190610a99565b60405180910390f35b3480156101cb575f80fd5b506101d46105d3565b005b3480156101e1575f80fd5b506101ea6105e6565b6040516101f79190610beb565b60405180910390f35b34801561020b575f80fd5b5061021461060b565b6040516102219190610c13565b60405180910390f35b348015610235575f80fd5b5061023e610632565b60405161024b9190610c44565b60405180910390f35b34801561025f575f80fd5b506102686106cf565b6040516102759190610c13565b60405180910390f35b348015610289575f80fd5b506102a4600480360381019061029f9190610b10565b6106f4565b6040516102b19190610a99565b60405180910390f35b3480156102c5575f80fd5b506102ce610709565b6040516102db9190610a99565b60405180910390f35b3480156102ef575f80fd5b506102f861070f565b6040516103059190610a99565b60405180910390f35b348015610319575f80fd5b50610334600480360381019061032f9190610b10565b610716565b005b348015610341575f80fd5b5061034a610798565b005b5f3403610385576040517f1e61837f00000000000000000000000000000000000000000000000000000000815260040160405180910390fd5b3460045f8373ffffffffffffffffffffffffffffffffffffffff1673ffffffffffffffffffffffffffffffffffffffff1681526020019081526020015f205f8282546103d19190610c8a565b9250508190555050565b5f60035f9054906101000a900473ffffffffffffffffffffffffffffffffffffffff1673ffffffffffffffffffffffffffffffffffffffff1663313ce5676040518163ffffffff1660e01b8152600401602060405180830381865afa158015610446573d5f803e3d5ffd5b505050506040513d601f19601f8201168201806040525081019061046a9190610cf3565b60ff16905090565b5f805f90505f60045f8573ffffffffffffffffffffffffffffffffffffffff1673ffffffffffffffffffffffffffffffffffffffff1681526020019081526020015f20541115610554575f6104c56103db565b90505f6104d0610632565b90505f60028360126104e29190610c8a565b6104ec9190610d1e565b905080600a6104fb9190610e80565b8260045f8973ffffffffffffffffffffffffffffffffffffffff1673ffffffffffffffffffffffffffffffffffffffff1681526020019081526020015f20546105449190610eca565b61054e9190610f38565b93505050505b80915050919050565b5f805f90505f8311156105c5575f6105736103db565b90505f61057e610632565b90505f60028360126105909190610c8a565b61059a9190610d1e565b90508181600a6105aa9190610e80565b876105b59190610eca565b6105bf9190610f38565b93505050505b80915050919050565b600281565b6105db61093b565b6105e45f6109b9565b565b60035f9054906101000a900473ffffffffffffffffffffffffffffffffffffffff1681565b5f805f9054906101000a900473ffffffffffffffffffffffffffffffffffffffff16905090565b5f8060035f9054906101000a900473ffffffffffffffffffffffffffffffffffffffff1673ffffffffffffffffffffffffffffffffffffffff1663feaf968c6040518163ffffffff1660e01b815260040160a060405180830381865afa15801561069e573d5f803e3d5ffd5b505050506040513d601f19601f820116820180604052508101906106c29190610fe5565b5050509150508091505090565b60025f9054906101000a900473ffffffffffffffffffffffffffffffffffffffff1681565b6004602052805f5260405f205f915090505481565b60015481565b5f47905090565b61071e61093b565b5f73ffffffffffffffffffffffffffffffffffffffff168173ffffffffffffffffffffffffffffffffffffffff160361078c576040517f08c379a0000000000000000000000000000000000000000000000000000000008152600401610783906110dc565b60405180910390fd5b610795816109b9565b50565b5f60045f3373ffffffffffffffffffffffffffffffffffffffff1673ffffffffffffffffffffffffffffffffffffffff1681526020019081526020015f20540361080e576040517f18306ed400000000000000000000000000000000000000000000000000000000815260040160405180910390fd5b5f60045f3373ffffffffffffffffffffffffffffffffffffffff1673ffffffffffffffffffffffffffffffffffffffff1681526020019081526020015f205490505f60045f3373ffffffffffffffffffffffffffffffffffffffff1673ffffffffffffffffffffffffffffffffffffffff1681526020019081526020015f20819055505f61089a610a7a565b73ffffffffffffffffffffffffffffffffffffffff16826040516108bd90611127565b5f6040518083038185875af1925050503d805f81146108f7576040519150601f19603f3d011682016040523d82523d5f602084013e6108fc565b606091505b5050905080610937576040517f1e61837f00000000000000000000000000000000000000000000000000000000815260040160405180910390fd5b5050565b610943610a7a565b73ffffffffffffffffffffffffffffffffffffffff1661096161060b565b73ffffffffffffffffffffffffffffffffffffffff16146109b7576040517f08c379a00000000000000000000000000000000000000000000000000000000081526004016109ae90611185565b60405180910390fd5b565b5f805f9054906101000a900473ffffffffffffffffffffffffffffffffffffffff169050815f806101000a81548173ffffffffffffffffffffffffffffffffffffffff021916908373ffffffffffffffffffffffffffffffffffffffff1602179055508173ffffffffffffffffffffffffffffffffffffffff168173ffffffffffffffffffffffffffffffffffffffff167f8be0079c531659141344cd1fd0a4f28419497f9722a3daafe3b4186f6b6457e060405160405180910390a35050565b5f33905090565b5f819050919050565b610a9381610a81565b82525050565b5f602082019050610aac5f830184610a8a565b92915050565b5f80fd5b5f73ffffffffffffffffffffffffffffffffffffffff82169050919050565b5f610adf82610ab6565b9050919050565b610aef81610ad5565b8114610af9575f80fd5b50565b5f81359050610b0a81610ae6565b92915050565b5f60208284031215610b2557610b24610ab2565b5b5f610b3284828501610afc565b91505092915050565b610b4481610a81565b8114610b4e575f80fd5b50565b5f81359050610b5f81610b3b565b92915050565b5f60208284031215610b7a57610b79610ab2565b5b5f610b8784828501610b51565b91505092915050565b5f819050919050565b5f610bb3610bae610ba984610ab6565b610b90565b610ab6565b9050919050565b5f610bc482610b99565b9050919050565b5f610bd582610bba565b9050919050565b610be581610bcb565b82525050565b5f602082019050610bfe5f830184610bdc565b92915050565b610c0d81610ad5565b82525050565b5f602082019050610c265f830184610c04565b92915050565b5f819050919050565b610c3e81610c2c565b82525050565b5f602082019050610c575f830184610c35565b92915050565b7f4e487b71000000000000000000000000000000000000000000000000000000005f52601160045260245ffd5b5f610c9482610a81565b9150610c9f83610a81565b9250828201905080821115610cb757610cb6610c5d565b5b92915050565b5f60ff82169050919050565b610cd281610cbd565b8114610cdc575f80fd5b50565b5f81519050610ced81610cc9565b92915050565b5f60208284031215610d0857610d07610ab2565b5b5f610d1584828501610cdf565b91505092915050565b5f610d2882610a81565b9150610d3383610a81565b9250828203905081811115610d4b57610d4a610c5d565b5b92915050565b5f8160011c9050919050565b5f808291508390505b6001851115610da657808604811115610d8257610d81610c5d565b5b6001851615610d915780820291505b8081029050610d9f85610d51565b9450610d66565b94509492505050565b5f82610dbe5760019050610e79565b81610dcb575f9050610e79565b8160018114610de15760028114610deb57610e1a565b6001915050610e79565b60ff841115610dfd57610dfc610c5d565b5b8360020a915084821115610e1457610e13610c5d565b5b50610e79565b5060208310610133831016604e8410600b8410161715610e4f5782820a905083811115610e4a57610e49610c5d565b5b610e79565b610e5c8484846001610d5d565b92509050818404811115610e7357610e72610c5d565b5b81810290505b9392505050565b5f610e8a82610a81565b9150610e9583610a81565b9250610ec27fffffffffffffffffffffffffffffffffffffffffffffffffffffffffffffffff8484610daf565b905092915050565b5f610ed482610a81565b9150610edf83610a81565b9250828202610eed81610a81565b91508282048414831517610f0457610f03610c5d565b5b5092915050565b7f4e487b71000000000000000000000000000000000000000000000000000000005f52601260045260245ffd5b5f610f4282610a81565b9150610f4d83610a81565b925082610f5d57610f5c610f0b565b5b828204905092915050565b5f69ffffffffffffffffffff82169050919050565b610f8681610f68565b8114610f90575f80fd5b50565b5f81519050610fa181610f7d565b92915050565b610fb081610c2c565b8114610fba575f80fd5b50565b5f81519050610fcb81610fa7565b92915050565b5f81519050610fdf81610b3b565b92915050565b5f805f805f60a08688031215610ffe57610ffd610ab2565b5b5f61100b88828901610f93565b955050602061101c88828901610fbd565b945050604061102d88828901610fd1565b935050606061103e88828901610fd1565b925050608061104f88828901610f93565b9150509295509295909350565b5f82825260208201905092915050565b7f4f776e61626c653a206e6577206f776e657220697320746865207a65726f20615f8201527f6464726573730000000000000000000000000000000000000000000000000000602082015250565b5f6110c660268361105c565b91506110d18261106c565b604082019050919050565b5f6020820190508181035f8301526110f3816110ba565b9050919050565b5f81905092915050565b50565b5f6111125f836110fa565b915061111d82611104565b5f82019050919050565b5f61113182611107565b9150819050919050565b7f4f776e61626c653a2063616c6c6572206973206e6f7420746865206f776e65725f82015250565b5f61116f60208361105c565b915061117a8261113b565b602082019050919050565b5f6020820190508181035f83015261119c81611163565b905091905056fea26469706673582212204ba7d11af3dc8a62156d1b8c60d1046e4556e3fa277b00bd043f9e8262d7a6aa64736f6c63430008150033",
  "immutableReferences": {},
  "source": "//SODX-License-Identifier: MIT\npragma solidity ^0.8.19;\n\nimport \"@chainlink/contracts/src/v0.8/interfaces/AggregatorV3Interface.sol\";\nimport \"@openzeppelin/contracts/access/Ownable.sol\";\n// import \"@openzeppelin/contracts/token/ERC20/utils/SafeERC20.sol\";\n\ncontract Collector is Ownable {\n\n    error noEthDeposited();\n    error noEthToWithdraw();\n    error noEthSent();\n\n    uint public constant usdDecimals = 2;\n    uint public ownerTEthAmountToWithdraw;\n\n    address public oracleEthUsdPrice;\n    AggregatorV3Interface public ethUsdOracle;\n\n    mapping(address user => uint256 amount) public userEthDeposits;\n\n    /**\n     * network: ETH mainnet\n     * aggregator eth / usd\n     * address: 0x5f4eC3Df9cbd43714FE2740f5E3616155c5b8419\n     */\n\n    constructor(address clEthUsd) {\n        oracleEthUsdPrice = clEthUsd;\n        ethUsdOracle = AggregatorV3Interface(oracleEthUsdPrice);\n    }\n\n    function getLatestPrice() public view returns (int) {\n        (\n            /*uint80 roundID*/,\n            int price,\n            /*uint startedAt*/,\n            /*uint timeStamp*/,\n            /*uint80 answeredRount*/\n        ) = ethUsdOracle.latestRoundData();\n        return price;\n    }\n\n    receive() external payable {\n        registerUserDeposit(msg.sender);\n    }\n\n    function registerUserDeposit(address sender) internal {\n        if(msg.value == 0) {\n            revert noEthSent();\n        }\n        userEthDeposits[sender] += msg.value;\n    }\n\n    function getPriceDecimals() public view returns (uint) {\n        return uint(ethUsdOracle.decimals());\n    }\n\n    function convertEthInUSD(address user) public view returns (uint) {\n        uint userUSDDeposit = 0;\n        if(userEthDeposits[user] > 0) {\n            uint ethPriceDecimals = getPriceDecimals();\n            uint ethPrice = uint(getLatestPrice());\n            uint divDecs = 18 + ethPriceDecimals - usdDecimals;\n            userUSDDeposit = userEthDeposits[user] * ethPrice / (10 ** divDecs);\n        }\n        return userUSDDeposit;\n    }\n\n    function converUSDhInETH(uint usdAmount) public view returns (uint) {\n        uint convertAmountInEth = 0;\n        if(usdAmount > 0) {\n            uint ethPriceDecimals = getPriceDecimals();\n            uint ethPrice = uint(getLatestPrice());\n            uint nulDecs = 18 + ethPriceDecimals - usdDecimals;\n            convertAmountInEth = usdAmount * (10 ** nulDecs) / ethPrice;\n        }\n        return convertAmountInEth;\n    }\n\n    function getNativeCoinsBalance() external view returns(uint256) {\n        return address(this).balance;\n    }\n\n    // function nativeCoinsWithdraw() external onlyOwner {\n    //     if(ownerEthAmountToWithdraw == 0) {\n    //         revert noEthToWithdraw;\n    //     }\n\n    //     uint256 tmpAmount = ownerEthAmountToWithdraw;\n    //     ownerEthAmountToWithdraw = 0;\n\n    //     (bool sent, ) = payable(_msgSender()).call{value: tmpAmount}(\"\");\n    //     if(!sent) {\n    //         revert noEthSent();\n    //     }\n    // }\n\n    function userEthWithdraw() external {\n        if(userEthDeposits[msg.sender] == 0) {\n            revert noEthDeposited();\n        }\n        uint tempValue = userEthDeposits[msg.sender];\n        userEthDeposits[msg.sender] = 0;\n\n        (bool sent, ) = payable(_msgSender()).call{value: tempValue}(\"\");\n        if(!sent) {\n            revert noEthSent();\n        }\n    }\n\n}\n\n",
  "sourcePath": "/home/massimomontanaro/projects/collector_example/contracts/Collector.sol",
  "compiler": {
    "name": "solc",
    "version": "0.8.21+commit.d9974bed.Emscripten.clang"
  },
  "schemaVersion": "3.4.15",
  "updatedAt": "2023-09-11T19:03:54.341Z",
  "devdoc": {
    "kind": "dev",
    "methods": {
      "owner()": {
        "details": "Returns the address of the current owner."
      },
      "renounceOwnership()": {
        "details": "Leaves the contract without owner. It will not be possible to call `onlyOwner` functions. Can only be called by the current owner. NOTE: Renouncing ownership will leave the contract without an owner, thereby disabling any functionality that is only available to the owner."
      },
      "transferOwnership(address)": {
        "details": "Transfers ownership of the contract to a new account (`newOwner`). Can only be called by the current owner."
      }
    },
    "version": 1
  },
  "userdoc": {
    "kind": "user",
    "methods": {
      "constructor": {
        "notice": "network: ETH mainnet aggregator eth / usd address: 0x5f4eC3Df9cbd43714FE2740f5E3616155c5b8419"
      }
    },
    "version": 1
  }
}